S0130000436F6D70656E7361646F722E7372656396
S113000012C024C023C022C021C020C01FC01EC0F3
S11300101DC01CC01BC01AC019C018C017C016C010
S113002015C014C013C011241FBECFE5D4E0DEBF39
S1130030CDBF10E0A0E6B0E0EAEBF2E002C005902C
S11300400D92AC36B107D9F716D035C1D9CF93E0AC
S113005094BB97E896B987B9369A349BFECF84B19E
S113006025B190E0922B6AE070E0CBD0CB010895EB
S113007080E4EDDF08959CD0C0E0D0E08AD061E058
S113008081E07CD080E690E061D061E082E076D0CF
S1130090EFDF4AE0BE0190E0DBD0CE0157D084EF21
S11300A07CD0ECCFC19891B39C6391BB92B3807F19
S11300B09F70982B92BB8AE08A95F1F700C0C29A90
S11300C08AE08A95F1F700C0C29881B38F7081BB32
S11300D00895882311F0C09A01C0C098C19A81B3D1
S11300E08F7081BB8AE08A95F1F700C0C29A9AE0CA
S11300F09A95F1F700C080B3C2989AE09A95F1F707
S113010000C0C29A9AE09A95F1F700C090B3C298E1
S11301109F70807F892B0895CF93DF93C82FD62FAC
S113012080E0D7DF8823E4F3DD2311F0C09A01C017
S1130130C0988AE18A95F1F700C08C2FB3DF8C2F29
S11301408295807FAFDFDF91CF9108951F93CF9386
S1130150DF93EC018881882369F011E061E0DCDF42
S113016091E0910FFE01E10FF11D8081882311F0D0
S1130170192FF4CFDF91CF911F910895813011F49D
S113018090E801C090EC8FEF860F60E0890FC4DF28
S1130190089560E081E0C0DF0895882341F0EFE92D
S11301A0FFE03197F1F700C000008150C1F70895D6
S11301B081B3806F81BB87B3876087BB88B3887F37
S11301C088BB8DE2EADF80E36DDF85E0E6DF80E374
S11301D069DF81E0E2DF80E365DF81E0DEDF80E28A
S11301E061DF81E0DADF80E25DDF80E85BDF60E031
S11301F08CE092DF60E081E08FDF60E086E08CDFFE
S1130200089597FB072E16F4009406D077FD08D0C6
S11302100BD007FC05D03EF4909581959F4F08952F
S1130220709561957F4F0895AA1BBB1B51E107C0D0
S1130230AA1FBB1FA617B70710F0A61BB70B881F72
S1130240991F5A95A9F780959095BC01CD01089501
S1130250BB274A3031F4992322F4BDE2909581956D
S11302609F4F01C0BB27FB015527AA27880F991F61
S1130270AA1FA41710F0A41B83955051B9F7A05DD1
S1130280AA3308F0A95DA193009779F7B111B1934E
S11302901192CB0100C0DC01FC01672F719177231F
S11302A0E1F7329704C07C916D9370836291AE172D
S10D02B0BF07C8F30895F894FFCFC8
S10F02BA506F74656E63696120320000AF
S9030000FC
